:100000000C94C3000C94EB000C94EB000C94EB00EC
:100010000C94EB000C94EB000C94EB000C94EB00B4
:100020000C94EB000C94EB000C94D7040C94580542
:100030000C94EB000C94EB000C94EB000C94EB0094
:100040000C94EB000C94EB000C94EB000C94EB0084
:100050000C94EB000C94EB000C94EB000C948D04CE
:100060000C94EB000C94EB000C94EB000C94EB0064
:100070000C94EB000C94EB000C94EB000C94EB0054
:100080000C94EB000C94EB000C94EB000C94EB0044
:100090000C94EB000C94EB000C94EB000C94EB0034
:1000A0000C94EB000C94EB000C94EB00080B00029A
:1000B0000202010009040000010202000005240000
:1000C0001001052401010104240206052406000193
:1000D0000705810310004009040100020A00000026
:1000E00007050202400000070583024000000403E8
:1000F000090412010002EF02014041233780000190
:100100000102030141726475696E6F204C4C43001B
:1001100041726475696E6F204D6963726F000706E6
:1001200005040100080A0B0C0D0900000000250061
:1001300028002B002E0031000000000024002700C2
:100140002A002D0030000404040404030405020204
:100150000202040302020202060606060606040460
:1001600002020204040408020110408040102040F2
:10017000804080080204018040201002011080109D
:1001800020404020BE0711241FBECFEFDAE0DEBFC3
:10019000CDBF11E0A0E0B1E0E4E1F4E102C00590E0
:1001A0000D92AA33B107D9F721E0AAE3B1E001C06B
:1001B0001D92A33CB207E1F710E0C3ECD0E004C00D
:1001C0002197FE010E94FD09C23CD107C9F70E9498
:1001D00054080C94080A0C9400002091600121112D
:1001E00003C08FEF9FEF08955FB7F89422E020934C
:1001F000E9002091F20030E01216130614F421E019
:1002000030E0422FFC0184E6415038F0289A809378
:100210005F019091F1009193F7CF2115310521F005
:100220008091F200882319F05FBFC90108958BE621
:100230008093E800F9CFCF92DF92EF92FF920F9375
:100240001F93CF93DF936C017A018B01C0E0D0E064
:10025000CE15DF0581F0D8016D918D01D601ED91AC
:10026000FC910190F081E02DC6010995892B11F0D8
:100270002196EECF7E01C701DF91CF911F910F91A3
:10028000FF90EF90DF90CF900895CF93DF931F9270
:10029000CDB7DEB76983DC01ED91FC910280F3817B
:1002A000E02D41E050E0BE016F5F7F4F09950F9058
:1002B000DF91CF910895CF93DF931F92CDB7DEB733
:1002C000FC018485958597FD05C02FEF3FEF3587AD
:1002D00024870BC0CE0101960E94ED00019719F40E
:1002E000898190E002C08FEF9FEF0F90DF91CF9157
:1002F00008950F931F93CF93DF931F92CDB7DEB76F
:100300008C01FC018485958597FF0EC0CE01019676
:100310000E94ED00019719F4898190E002C08FEFEF
:100320009FEFF80195878487F801848595850F9064
:10033000DF91CF911F910F910895FC0184859585E0
:1003400097FD0BC09FB7F89482E08093E9008091FD
:10035000F2009FBF90E0019608959FB7F89482E065
:100360008093E9008091F2009FBF90E00895089586
:1003700080E090E00895823108F08251E82FF0E0AB
:10038000E25EFE4FE49180917B00E3FB222720F99F
:1003900030E095E0220F331F9A95E1F78F7D282BEF
:1003A00020937B00E770E064E0937C0080917A000A
:1003B000806480937A0080917A0086FDFCCF8091E2
:1003C00078002091790090E0922B08953FB7F8943F
:1003D00080915B0190915C01A0915D01B0915E0103
:1003E00026B5A89B05C02F3F19F00196A11DB11D90
:1003F0003FBFBA2FA92F982F8827820F911DA11DCB
:10040000B11DBC01CD0142E0660F771F881F991F07
:100410004A95D1F70895CF92DF92EF92FF920E9412
:10042000E6016B017C010E94E601DC01CB018C1925
:100430009D09AE09BF09883E9340A105B10598F317
:10044000FF90EF90DF90CF9008958093E900809126
:10045000F200882319F08AE38093E800089583E08E
:100460000C94250240914801509149012091460188
:100470003091470142175307B4F49091E80095700A
:10048000E1F39091E80092FD19C08093F100809112
:1004900048019091490101968F739927892B19F48E
:1004A0008EEF8093E8008091480190914901019678
:1004B000909349018093480181E0089580E0089578
:1004C000DF92EF92FF920F931F93CF93DF93D82E7B
:1004D0008A017B01E40EF51EEB01CE15DF0571F0FC
:1004E000D7FE03C0FE01849101C088810E943202C0
:1004F00021968111F2CF8FEF9FEF01C0C801DF91EC
:10050000CF911F910F91FF90EF90DF9008952FB73B
:10051000F89487708093E9009091E800892F8072A9
:1005200095FF04C09091F20080E4891B2FBF0895CD
:1005300083E00E94870290E008957F928F929F92BD
:10054000AF92BF92CF92DF92EF92FF920F931F93E1
:10055000CF93DF93C82E8B017A01809160018111C6
:1005600003C08FEF9FEF70C080914C0180FF05C0EA
:100570008091E00082608093E000CE2DDF2DD12CB1
:100580008AEFB82E8C2D8770982E8C2D8072882E35
:100590008C2D8074782E9AE3A92E209719F4DD20F3
:1005A00009F44DC08C2D0E948702811106C0BA94B7
:1005B000BB20B9F20E940B02F0CF282F30E0C21707
:1005C000D3070CF48C2F9FB7F8949092E9002091F8
:1005D000E80025FF32C0282F30E0C21BD30B882053
:1005E00029F08150A0F01092F100FBCFF801C7FE76
:1005F0000AC0815050F044914093F1003196F9CFF8
:1006000041914093F1008150D8F7020F131FDD2074
:1006100019F0A092E8000AC08091E80085FD08C0AA
:10062000A092E800DD24D394209739F0D12C05C0A6
:10063000209719F47110A092E8009FBFAECF5D9A89
:1006400084E680934B01C701DF91CF911F910F91F9
:10065000FF90EF90DF90CF90BF90AF909F908F90E2
:100660007F900895CF93DF93EC0180910E01882352
:1006700031F083E00E949D021816190634F081E0E3
:1006800090E09B838A8380E090E0DF91CF91089592
:10069000615030F02091F100FC0120830196F8CFE9
:1006A000289A84E680935F01089580913E0181112C
:1006B0000DC082E080933A0184E080933B01109268
:1006C0003D0110923C0181E080933E018AE391E07C
:1006D00008950F931F93CF93DF931F92CDB7DEB78B
:1006E00082E0898342E450E06CEA70E080E80E9496
:1006F00060020E945503DC0112960D911C91139724
:100700000115110589F0D801ED91FC910280F3816A
:10071000E02DBE016F5F7F4FC801099597FD04C0B2
:10072000F80100851185ECCF89810F90DF91CF9181
:100730001F910F91089580E090E0089580E0089562
:10074000CF92DF92EF92FF920F931F93CF93DF939D
:10075000CDB7DEB7C456D1090FB6F894DEBF0FBED1
:10076000CDBF6C01DB019C919E5F9C93FE01319695
:1007700084E6DF011D928A95E9F788E089838BE0A2
:100780008A8322E02C8391E09D839E8339E0398720
:1007900074E07A879E879F873A8B44E24B8B9C8BD1
:1007A00000E011E01E8B0D8B89E0E82EF12CF88E15
:1007B000EF8A998F3B8F7C8F2F8F98A353E059A39B
:1007C00087E08CA34DA39EA318A70FA301E410E01C
:1007D0001AA709A786E08BA74CA72DA79EA79FA7BE
:1007E00089AB4AAB2BAB2CAB2DAB3FAB48AF59AF72
:1007F0009AAF5BAF9CAF2DAF9EAF21963FAF2197D5
:1008000022964FAF229723965FAF239724962FAF60
:10081000249725967FAF259726969FAF26972796F4
:100820009FAF279728969FAF28972A963FAF2A9782
:1008300045E02B964FAF2B972D962FAF2D9760E469
:1008400070E02F967FAF6EAF2F9763964FAF639791
:1008500085E264968FAF649765969FAF65976696BD
:100860009FAF669767969FAF679768963FAF689709
:1008700069964FAF69976B962FAF6B976D967FAF69
:100880006EAF6D97A1964FAFA197A2968FAFA2972B
:10089000A3969FAFA397A4969FAFA497A5965FAF8B
:1008A000A597D60112969C9112979B839B879F5F79
:1008B0009A8F9D8F13968C912C968FAF2C978F5F6C
:1008C00080686A968FAF6A9744E650E0BF0180E087
:1008D0000E946002CC59DF4F0FB6F894DEBF0FBE06
:1008E000CDBFDF91CF911F910F91FF90EF90DF90DF
:1008F000CF900895FC0182818F5BFB01808381E0B2
:1009000008950E94030A84E0E4E3F1E0DB01019032
:100910000D928A95E1F784E008951F920F920FB629
:100920000F9211242F933F938F939F93AF93BF9375
:100930008091570190915801A0915901B0915A01AD
:100940003091560123E0230F2D3720F40196A11D8D
:10095000B11D05C026E8230F0296A11DB11D2093ED
:1009600056018093570190935801A0935901B09379
:100970005A0180915B0190915C01A0915D01B09161
:100980005E010196A11DB11D80935B0190935C01F6
:10099000A0935D01B0935E01BF91AF919F918F9144
:1009A0003F912F910F900FBE0F901F9018951F929F
:1009B0000F920FB60F9211242F933F934F935F9393
:1009C0006F937F938F939F93AF93BF93CF93EF9347
:1009D000FF93C091E1008091E100837F8093E1006B
:1009E000C3FF0FC01092E90081E08093EB001092EA
:1009F000EC0082E38093ED001092600188E0809328
:100A0000F000C2FF19C083E00E94250280914B01D3
:100A1000882339F080914B01815080934B018823CA
:100A200089F180915F01882339F080915F018150C5
:100A300080935F01882341F1C4FF10C08091E200E0
:100A40008E7E81608093E2008091E1008F7E8093B2
:100A5000E10080914C018E7E806111C0C0FF16C004
:100A60008091E2008E7E80618093E2008091E100BF
:100A70008E7E8093E10080914C018E7E8160809318
:100A80004C0104C05D98CDCF2898D6CFFF91EF914F
:100A9000CF91BF91AF919F918F917F916F915F9116
:100AA0004F913F912F910F900FBE0F901F9018956F
:100AB0001F920F920FB60F921124CF92DF92EF92F6
:100AC000FF920F931F932F933F934F935F936F93D7
:100AD0007F938F939F93AF93BF93EF93FF93CF93A6
:100AE000DF93CDB7DEB76C97DEBFCDBF1092E900C4
:100AF0008091E80083FFFBC168E0CE0145960E942B
:100B0000480382EF8093E8008D8987FF05C09091AC
:100B1000E80090FFFCCF03C09EEF9093E800982F71
:100B2000907609F0C6C09E894F89588D2F89F88C20
:100B300091110CC0803829F480914D018093F1000F
:100B400002C01092F1001092F10045C1913051F4B1
:100B5000811141C14130510509F03DC180914D01E4
:100B60008D7F0BC0933061F4811135C14130510547
:100B700009F031C180914D01826080934D012BC1FC
:100B8000953049F48091E80080FFFCCF822F806887
:100B90008093E30020C1963009F05EC00B8D1C8D60
:100BA00022E01092E9001092490110924801F212DD
:100BB00032C010924701109246010E94690399E0E9
:100BC000BE016F5F7F4FDB01E92F1D92EA95E9F7C8
:100BD0009983FA8291E09E8390EA98879AEF9987A9
:100BE0002091480130914901275F3F4F3C832B837F
:100BF0008D831092E90010924901109248011093E0
:100C000047010093460149E050E080E00E94600205
:100C10000E946903E0C010934701009346010E94BF
:100C20005503DC0112960D911C91139701151105C6
:100C300009F4BBC0D801ED91FC910480F581E02D51
:100C4000BE016B5E7F4FC8010995009709F0C7C0D0
:100C5000F80100851185EACF973009F445C1983035
:100C600021F481E08093F100B6C0993009F0B3C05F
:100C7000837009F039C1E0E1F1E081E031E096E311
:100C80002081211109C08EE78093EA001092EA00CA
:100C90008F89809360019FC08093E9003093EB00BF
:100CA00021912093EC009093ED008F5F873041F706
:100CB000EACF8B8D9C8D1092E90010924901109221
:100CC00048019093470180934601898D811153C05B
:100CD0008E899D89913A49F4813209F005C147E036
:100CE00050E067E071E080E0BBC0913209F0FCC0E9
:100CF000833269F48F89988DA0E0B0E08093000181
:100D000090930101A0930201B093030164C080326B
:100D100069F48091E80082FFFCCF67E087E091E012
:100D20000E9448038BEF8093E80055C0823209F09F
:100D300052C08F8980930E01EEEFFFE78591949169
:100D40008B3F9C4D19F0E0E0F8E002C0EEEFFAE0D6
:100D50008091070190910801A0910901B0910A01C9
:100D6000803B9440A105B10509F09EC080910E0121
:100D700080FF79C099C00E945503FC010281138154
:100D80000115110509F4B0C0D801ED91FC91019055
:100D9000F081E02DBE016B5E7F4FC8010995811186
:100DA0001AC0F80100851185EBCFF1E0FF1609F4B8
:100DB0004EC0F3E0FF1298C08F89882309F44AC01F
:100DC000823089F440E86DE080E191E00E94710991
:100DD000882309F489C08EEF8093E80088C0181634
:100DE0001906CCF381C0813029F440E86BE084E03F
:100DF00091E0ECCF833009F077C00E945503DC010D
:100E00001296ED90FC9013978E010F5F1F4F6801B3
:100E1000E114F10479F0D701ED91FC910680F7819E
:100E2000E02DB801C7010995080F111DF701E084F5
:100E3000F184EECFD8011C92F60101900020E9F771
:100E40003197BF016C197D0940E0C601BFCF62EF49
:100E500070E002C06EEE70E0FB01449150E080E86B
:100E60000E946002B8CFEE3F2AE0F20751F0808185
:100E700091818737A7E79A0721F09093FF0A809323
:100E8000FE0A87E797E791838083809160008093D3
:100E90004A019BE088E10FB6F894A8958093600022
:100EA0000FBE9093600097CF8081918187379747DD
:100EB00009F091CFA89580916000886180936000CF
:100EC00080914A0180936000EE3FBAE0FB0739F061
:100ED0008091FE0A9091FF0A918380837CCF1092CB
:100EE000FF0A1092FE0A77CF81E28093EB006C96A6
:100EF0000FB6F894DEBF0FBECDBFDF91CF91FF914B
:100F0000EF91BF91AF919F918F917F916F915F9181
:100F10004F913F912F911F910F91FF90EF90DF9094
:100F2000CF900F900FBE0F901F901895CF93DF9327
:100F300090E0FC01EB59FE4F2491FC01EA5BFE4F6F
:100F400084918823C1F090E0880F991FFC01E85C30
:100F5000FE4FC591D491FC01E65DFE4FA591B49181
:100F60009FB7F8948881E22FE0958E2388838C9137
:100F7000E823EC939FBFDF91CF910895CF93DF9348
:100F8000109264011092630188EE93E0A0E0B0E05B
:100F90008093650190936601A0936701B093680107
:100FA0008AE191E090936201809361018FEF9FEF5E
:100FB00090936E0180936D0182E08093B5018093E0
:100FC000B6018BEB91E09093B8018093B70110923A
:100FD000BA011092B9018CE291E09093B201809332
:100FE000B10180E88093BB0181E88093BC010E943D
:100FF0005503FC0121818091B50190E0820F911D84
:101000000897C4F5A281B381109729F481EB91E090
:10101000938382830EC018968D919C9119970097A7
:1010200011F0DC01F8CF81EB91E019969C938E933F
:10103000189780818093B30181818093B40190815E
:101040008091B601890F808380E09091B501891766
:1010500088F49181A92FB0E0A15FBE4FC091B70184
:10106000D091B801C80FD11D28812C939F5F918327
:101070008F5FEBCF82E190E09093C2018093C1013A
:101080000E94960784E190E09093C0018093BF0195
:101090000E94960785E190E09093BE018093BD0188
:1010A000DF91CF910C949607CF93DF9300D000D0BF
:1010B000CDB7DEB7789484B5826084BD84B5816095
:1010C00084BD85B5826085BD85B5816085BD809113
:1010D0006E00816080936E0010928100809181008B
:1010E0008260809381008091810081608093810083
:1010F0008091800081608093800080919100826067
:101100008093910080919100816080939100809103
:1011100090008160809390008091C10084608093F2
:10112000C1008091C10082608093C1008091C100A4
:1011300081608093C1008091C30081608093C3006F
:101140008091C00082608093C0008091C200816065
:101150008093C20080917A00846080937A008091AD
:101160007A00826080937A0080917A008160809317
:101170007A0080917A00806880937A0010926001F2
:1011800010924D0110924C018091D70081608093A4
:10119000D70080EA8093D80089B5806189BD89B580
:1011A000826089BD09B400FEFDCF0E940B028091D0
:1011B000D8008F7C80618093D8008091E000807F90
:1011C0008093E0008091E1008E7E8093E1008DE0CD
:1011D0008093E200559A209A5D98289888248A94F2
:1011E00083E0982EA12CB12C00E010E099E0792E3C
:1011F00020E9622E30E3532E8091BF010E94BB0193
:1012000028EE33E0DC010E94F609A50194010E945A
:10121000A609209306018091BD010E94BB012FE722
:1012200030E0DC010E94F609A50194010E94A609A4
:1012300030930501209304018FB7F894C0905701B3
:10124000D0905801E0905901F0905A018FBFC092A0
:101250005201D0925301E0925401F09255018091D5
:10126000C1010E94BB014F97ACF180914E0190915A
:101270004F01A0915001B0915101B701A601481B47
:10128000590B6A0B7B0B8091060190E0A0E0B0E067
:1012900084179507A607B707E8F4809104017982BF
:1012A0006A825B828C838091B40144E050E0BE018D
:1012B0006F5F7F4F8F5F0E949D02C0924E01D09260
:1012C0004F01E0925001F09251018091B4018F5F83
:1012D0000E9425020115110509F48ECF0E9400001D
:1012E0008BCFDF92EF92FF920F931F93CF93DF93F9
:1012F000D82EF92EE42E062F10E0C8010196880F93
:101300000E94320283E00E943202CD2DDF2D0C0FAD
:101310001D1FC017D10789F0E7FE03C0FE018491AD
:1013200001C088810E943202F82E80E00E943202C1
:101330008F2121968111EDCF01C081E0DF91CF9106
:101340001F910F91FF90EF90DF900895052E97FB6E
:101350001EF400940E94BD0957FD07D00E94C509E4
:1013600007FC03D04EF40C94BD0950954095309580
:1013700021953F4F4F4F5F4F089590958095709501
:1013800061957F4F8F4F9F4F0895A1E21A2EAA1BA0
:10139000BB1BFD010DC0AA1FBB1FEE1FFF1FA21725
:1013A000B307E407F50720F0A21BB30BE40BF50B22
:1013B000661F771F881F991F1A9469F760957095AB
:1013C000809590959B01AC01BD01CF010895A29F2E
:1013D000B001B39FC001A39F700D811D1124911D09
:1013E000B29F700D811D1124911D08950E94E7097F
:1013F000B7FF0895821B930B0895EE0FFF1F059012
:10140000F491E02D099481E090E0F8940C94080A9E
:04141000F894FFCF7E
:10141400FFFFFFFF7F006400E10000000000000008
:10142400C1808100000000000000450132039802E1
:101434002F029D015B017901000000009E03A003BF
:0A1444009B0383044D494449000056
:00000001FF
